:040000008A11F12F41
:100B72007E088A007F0882008A11B9258A118000C6
:100B8200840A04087D0603190034FF0A0319FE0AC9
:100B9200BD2D0134003419340034323400344B3466
:100BA2000034643400347D34003496340034AF347D
:100BB2000034C8340034E1340034372E0610861075
:100BC200061186110612861206175E2E061486106C
:100BD200061186150616861606175E2E0610861054
:100BE200061586110612861606135E2E061086104C
:100BF200061186110616861606135E2E0614861038
:100C0200061186150616861206135E2E0610861427
:100C1200061186110616861206135E2E061086141B
:100C2200061186110612861206135E2E0610861013
:100C3200061186150616861606175E2E06108610F3
:100C4200061186110612861206135E2E06108610F3
:100C5200061186110616861206135E2E06148614D7
:100C6200061586150616861606175E2E83120313C0
:100C72002108003A03193E2E2F2E2008003A0319AC
:100C8200DF2D013A0319E72D033A0319EF2D013A3B
:100C92000319F72D073A0319FF2D013A0319072EFD
:100CA200033A03190F2E013A0319172E0F3A0319AB
:100CB2001F2E013A0319272E2F2E0800033083120C
:100CC2000313C4000030C500263084004630A20061
:100CD2000408A3001430A40022088400831300082F
:100CE200A500A20A2308840025088000A30AA40BF9
:100CF2006D2EBA01BB01BC01BD010C3097008316F9
:100D0200031307110730831203139200FF30831677
:100D12000313920007168716860183120313BE017E
:100D2200BF01FE30831203138600023083120313C5
:100D3200A4000430A300BA30A200A20B9E2EA30B83
:100D42009E2EA40B9E2EFD308312031386000230CA
:100D520083120313A4000430A300BA30A200A20B32
:100D6200B02EA30BB02EA40BB02EFB3083120313B4
:100D72008600023083120313A4000430A300BA30A9
:100D8200A200A20BC22EA30BC22EA40BC22EF730BE
:100D9200831203138600023083120313A40004306B
:100DA200A300BA30A200A20BD42EA30BD42EA40B04
:100DB200D42EEF3083120313860002308312031302
:100DC200A4000430A300BA30A200A20BE62EA30BAB
:100DD200E62EA40BE62EDF308312031386000230C8
:100DE20083120313A4000430A300BA30A200A20BA2
:100DF200F82EA30BF82EA40BF82EBF308312031388
:100E020086000130BE070318BF0A0030BF073F0843
:100E1200803AFF0080307F02031D112F03303E0213
:100E2200031C142F152F922E031083120313871AFB
:100E32000314003003180130A200A3012208C000ED
:100E42002308C1000310071A0314003003180130ED
:100E5200A200A3012208C2002308C3003B084106E6
:100E6200031D352F3A0840060319382F392F852FD5
:100E720040084104031D3E2F3F2F772F4408013EB7
:100E8200C40045080318013E003EC5004508803AEB
:100E9200FF0080307F02031D502F09304402031CE3
:100EA200532F542F5A2F093083120313C4000030DA
:100EB200C500831203134508803AFF0080307F0289
:100EC200031D652F013044020318682F692F6D2F0F
:100ED20083120313C401C501831203134408A20041
:100EE2002207263E840083130008950002308312F5
:100EF2000313A4000430A300BA30A200A20B7F2F78
:100F0200A30B7F2FA40B7F2F831203133D084306ED
:100F1200031D8D2F3C0842060319902F912FDD2FC0
:100F220042084304031D962F972FCF2F4408FF3EFC
:100F3200C40045080318013EFF3EC5004508803A3B
:100F4200FF0080307F02031DA82F09304402031CDA
:100F5200AB2FAC2FB22F093083120313C400003021
:100F6200C500831203134508803AFF0080307F02D8
:100F7200031DBD2F013044020318C02FC12FC52FFE
:100F820083120313C401C501831203134408A20090
:100F92002207263E84008313000895000230831244
:100FA2000313A4000430A300BA30A200A20BD72F6F
:100FB200A30BD72FA40BD72F831203134108BB0017
:100FC2004008BA004308BD004208BC004508A10021
:100FD2004408A0008A11DE258A11152F8A110028E3
:100FE20083135A30FD000530FE00CA30FF00463040
:0E0FF20084008A11BD258A1183018A115F2EA9
:02400E00BA3FB7
:00000001FF
